:020000040800F2
:10000000E0070020A5020008291F0008211F0008A2
:10001000251F0008A10300086D2D00080000000046
:10002000000000000000000000000000392000086F
:10003000A503000800000000991F00089120000897
:10004000BF020008BF020008BF020008BF0200088C
:10005000BF020008BF020008BF020008BF0200087C
:10006000BF020008BF020008BF020008BF0200086C
:10007000BF020008BF020008BF020008BF0200085C
:10008000BF020008BF020008BF020008BF0200084C
:10009000BF020008BF020008BF020008BF0200083C
:1000A000BF020008BF020008BF020008BF0200082C
:1000B000BF020008BF020008BF020008BF0200081C
:1000C000BF020008BF020008BF020008BF0200080C
:1000D000BF020008E92C0008BF020008BF020008A8
:1000E000BF020008BF020008BF020008BF020008EC
:1000F000BF020008BF020008BF020008BF020008DC
:10010000BF020008BF020008BF020008BF020008CB
:10011000BF020008BF020008BF020008BF020008BB
:10012000BF020008BF020008BF020008BF020008AB
:10013000BF020008BF020008BF020008BF0200089B
:10014000BF020008BF020008BF020008BF0200088B
:10015000BF020008BF020008BF020008BF0200087B
:10016000BF020008BF020008BF020008BF0200086B
:10017000BF020008BF020008BF020008BF0200085B
:10018000BF020008BF020008BF020008BF0200084B
:10019000BF02000800000000BF020008BF02000804
:1001A000BF020008BF020008BF020008BF0200082B
:1001B000BF020008BF020008BF020008BF0200081B
:1001C000BF020008BF020008BF020008BF0200080B
:1001D000BF020008BF02000800F002F800F052F869
:1001E00014A696E8000CB244B344DA4501D100F0FD
:1001F00049F8BAE80F000FA696E83000A5EB040511
:1002000004EB0607AAEB0704A7F101074FEA15154F
:100210004FEA3414A4F10104AC4201D300F032F8E7
:1002200013F0010F18BFFB1A43F0010300F001F8AF
:10023000DBE71847A42E0000C42E0000103A24BFAC
:1002400078C878C1FAD8520724BF30C830C144BF3B
:1002500004680C6070470000704700000023002411
:1002600000250026103A28BF78C1FBD8520728BFC6
:1002700030C148BF0B6070471FB502F017FF1FBDAC
:1002800010B510BD00F05AF81146FFF7F5FF02F067
:100290005DFE00F078F803B4FFF7F2FF03BC02F054
:1002A000AFFD00000948804709480047FEE7FEE728
:1002B000FEE7FEE7FEE7FEE7FEE7FEE7FEE7FEE716
:1002C00004480549054A064B70470000992000087C
:1002D000D9010008E0010020E0070020E003002031
:1002E000E003002070474FF0000200B5134694462B
:1002F0009646203922BFA0E80C50A0E80C50B1F17E
:100300002001BFF4F7AF090728BFA0E80C5048BF91
:100310000CC05DF804EB890028BF40F8042B08BF2F
:10032000704748BF20F8022B11F0804F18BF00F82B
:10033000012B70477047704770477047754600F053
:100340002BF8AE4605006946534620F00700854667
:1003500018B020B5FFF7B4FFBDE820404FF000060D
:100360004FF000074FF000084FF0000BAC46ACE830
:10037000C009ACE8C009ACE8C009ACE8C00921F08C
:1003800007018D46704710B50446AFF30080204644
:10039000BDE81040FFF77FBF004870471000002005
:1003A000FFE7FEE77047000082B0019000208DF863
:1003B0000300019890F82500022807D0FFE7019973
:1003C0000420C86301208DF803002DE00198016826
:1003D000086820F00E0008600198816C086820F41D
:1003E0008070086001980168086820F001000860CA
:1003F0000198016C406C00F01F02012090404860A1
:100400000198C16C006D48600198406D58B1FFE7DC
:100410000198416D086820F4807008600198816D32
:10042000C06D4860FFE7FFE70199012081F82500D2
:10043000FFE70199002081F82400FFE79DF8030001
:1004400002B0704780B582B0019000208DF80300A3
:10045000019890F82500022811D0FFE701990420A7
:10046000C8630199012081F82500FFE70199002068
:1004700081F82400FFE701208DF803003FE0019898
:100480000168086820F00E0008600198016808689B
:1004900020F0010008600198816C086820F48070E9
:1004A00008600198016C406C00F01F020120904030
:1004B00048600198C16C006D48600198406D58B16A
:1004C000FFE70198416D086820F48070086001988A
:1004D000816DC06D4860FFE70199012081F825001A
:1004E000FFE70199002081F82400FFE70198806B65
:1004F00020B1FFE70198816B8847FFE7FFE79DF890
:10050000030002B080BD00008BB00A90099100206A
:100510000890FFE7099800680899C840002800F093
:10052000A581FFE709980068089A012191400840D9
:1005300007900798002800F09581FFE70998406828
:1005400000F00300012807D0FFE70998406800F099
:10055000030002282FD1FFE70A98806806900898C8
:100560004100032000FA01F106988843069009989B
:10057000C0680899490000FA01F1069808430690FE
:1005800006980A9988600A984068069008990120A0
:1005900000FA01F106988843069009984068C0F374
:1005A0000010089900FA01F1069808430690069891
:1005B0000A994860FFE70998406800F003000328A3
:1005C00018D0FFE70A98C0680690089841000320F9
:1005D00000FA01F106988843069009988068089906
:1005E000490000FA01F106980843069006980A9916
:1005F000C860FFE70998406800F00300022826D190
:10060000FFE70A9808996FF0030202EA51010844D3
:10061000006A0690089800F0070081000F2000FA99
:1006200001F106988843069009980069089901F03D
:100630000701890000FA01F1069808430690069820
:100640000A99089B02EA530211440862FFE70A98DC
:100650000068069008984100032000FA01F106980E
:10066000884306900998406800F003000899490003
:1006700000FA01F106980843069006980A99086066
:10068000099880798007002800F0EB80FFE7FFE7FA
:1006900041F26000C4F20200016841F00101016012
:1006A000006800F0010005900598FFE7089820F029
:1006B00003000821C4F2010140580690089800F098
:1006C000030081000F2000FA01F10698884306908C
:1006D0000A98B0F1904F03D1FFE70020049042E068
:1006E0000A9840F20041C4F60001884203D1FFE7B6
:1006F0000120039034E00A9840F60001C4F600019E
:10070000884203D1FFE70220029026E00A9840F6D3
:100710000041C4F60001884203D1FFE703200190A5
:1007200018E00A9841F20001C4F60001884203D1A2
:10073000FFE7042000900AE00A9941F20042C4F663
:1007400000020620914208BF05200090FFE70098B4
:100750000190FFE701980290FFE702980390FFE7FE
:1007600003980490FFE70498089901F003018900B9
:1007700000FA01F10698084306900698089921F0BE
:1007800003010822C4F20102885040F20840C4F27A
:10079000010000680690079906988843069009981A
:1007A0008079C006002805D5FFE707990698084319
:1007B0000690FFE7069840F20841C4F20101086084
:1007C00040F20C40C4F201000068069007990698B8
:1007D00088430690099880798006002805D5FFE7B0
:1007E0000799069808430690FFE7069840F20C41E7
:1007F000C4F20101086040F20440C4F20100006844
:100800000690079906988843069009988079800792
:10081000002805D5FFE70799069808430690FFE7EB
:10082000069840F20441C4F20101086040F2004021
:10083000C4F2010000680690079906988843069064
:1008400009988079C00728B1FFE7079906980843FF
:100850000690FFE7069840F20041C4F201010860EB
:10086000FFE7FFE708980130089053E60BB07047A8
:1008700082B00190ADF802108DF801209DF80100C2
:1008800028B1FFE7BDF802000199886104E0BDF8D6
:10089000020001998862FFE702B0704742F200004F
:1008A000CEF204000068000C7047000040F2D8103F
:1008B000C2F200000068704740F20800C2F2000077
:1008C000026840F2D811C2F20001086810440860C2
:1008D0007047000080B582B000208DF8070003202B
:1008E00000F06EF80F2000F00DF820B1FFE70120B6
:1008F0008DF8070002E000F049F8FFE79DF80700D7
:1009000002B080BD80B582B0019000208DF8030058
:1009100040F20800C2F20000006878B3FFE740F23E
:100920000400C2F20000006840F20801C2F20001B7
:100930000A684FF47A71B1FBF2F1B0FBF1F000F00C
:1009400029FFB0B9FFE701980F280DD8FFE70199FB
:100950004FF0FF30002200F01BF8019840F20C012C
:10096000C2F20001086003E001208DF80300FFE7F8
:1009700003E001208DF80300FFE703E001208DF87C
:100980000300FFE79DF8030002B080BD7047000040
:1009900080B586B08DF817000491039202F0E8F953
:1009A00002909DF91700019002980499039A01F0B2
:1009B000BDFA0146019802F0E3F906B080BD0000DF
:1009C00080B582B00190019802F0FCF902B080BDC0
:1009D00085B00390039800285ED1FFE747F200003E
:1009E000C4F20000006800F4C060B0F5806F49D127
:1009F000FFE747F28001C4F20001086820F480702C
:100A0000086047F20002C4F200021168012060F39E
:100A10004A21116040F20401C2F200010968322249
:100A200051434DF68362C4F21B32A1FB022100EB5D
:100A300091400290FFE747F21400C4F20000016801
:100A4000002049050029019006D5FFE702980028FB
:100A500018BF01200190FFE70198C00720B1FFE710
:100A6000029801380290E6E747F21400C4F2000051
:100A700000684005002804D5FFE703208DF8130027
:100A80007CE008E047F28001C4F20001086820F42D
:100A900080700860FFE76DE00398B0F5007F5ED1DD
:100AA000FFE747F20000C4F20000006800F4C060F5
:100AB000B0F5806F49D1FFE747F28001C4F2000131
:100AC000086840F48070086047F20002C4F2000237
:100AD0001168012060F34A21116040F20401C2F262
:100AE00000010968322251434DF68362C4F21B3281
:100AF000A1FB022100EB91400290FFE747F21400B6
:100B0000C4F200000168002049050029009006D5C4
:100B1000FFE70298002818BF01200090FFE7009827
:100B2000C00720B1FFE7029801380290E6E747F2DC
:100B30001400C4F2000000684005002804D5FFE757
:100B400003208DF8130019E008E047F28001C4F299
:100B50000001086840F480700860FFE709E047F290
:100B60000001C4F200010868022262F34A20086012
:100B7000FFE7FFE700208DF81300FFE79DF8130063
:100B800005B0704780B586B00490039100200090B6
:100B9000049820B9FFE701208DF8170081E1039840
:100BA00042F20001C4F20201096801F00F0188421B
:100BB00016D9FFE742F20000C4F20200016821F0FA
:100BC0000F01039A11430160006800F00F000399C0
:100BD000884204D0FFE701208DF8170061E1FFE7AC
:100BE00004980078C007002800F0A380FFE704986D
:100BF0004068032839D1FFE741F20000C4F2020047
:100C000000688001002804D4FFE701208DF8170058
:100C100047E101F0C3F9019001984BF20141C0F2A4
:100C2000C441884220D3FFE741F20800C4F2020029
:100C3000006810F0F00F0AD0FFE7049800788007F2
:100C4000002810D5FFE70498806860B9FFE741F2FB
:100C50000801C4F202010868082262F30710086064
:100C600080200090FFE7FFE738E004984068022802
:100C70000ED1FFE741F20000C4F2020000688003D9
:100C8000002804D4FFE701208DF8170009E10DE0EA
:100C900041F20000C4F2020000684005002804D4BC
:100CA000FFE701208DF81700FBE0FFE700F0FEF8FA
:100CB000019001984BF20141C0F2C44188420CD32B
:100CC000FFE741F20801C4F202010868082262F35A
:100CD0000710086080200090FFE7FFE741F208015D
:100CE000C4F20201086820F00300049A526810431D
:100CF0000860FFF7DBFD0290FFE741F20800C4F255
:100D00000200006800F00C0004994968B0EB810F04
:100D10000ED0FFE7FFF7CAFD0299401A41F2893170
:100D2000884204D3FFE703208DF81700B9E0E4E719
:100D3000FFE704980078800700282CD5FFE7049887
:100D400000784007002809D5FFE741F20801C4F206
:100D50000201086840F4E0600860FFE7049800784A
:100D6000000700280BD5FFE741F20801C4F2020199
:100D7000086840F4E06020F460500860FFE741F24A
:100D80000801C4F20201086820F0F000049A926899
:100D9000104308600DE00098802809D1FFE741F278
:100DA0000801C4F20201086820F0F0000860FFE7C3
:100DB000FFE7039842F20001C4F20201096801F062
:100DC0000F01884228D2FFE742F20001C4F202017B
:100DD000086820F00F00039A10430860FFF766FDD3
:100DE0000290FFE742F20000C4F20200006800F047
:100DF0000F00039988420ED0FFE7FFF757FD0299D5
:100E0000401A41F28931884204D3FFE703208DF86C
:100E1000170046E0E6E7FFE704980078400700285F
:100E20000CD5FFE741F20801C4F20201086820F482
:100E3000E060049AD26810430860FFE704980078E5
:100E4000000700280DD5FFE741F20801C4F20201B6
:100E5000086820F46050049A126940EAC2000860F1
:100E6000FFE700F023F841F20801C4F2020109682B
:100E7000C9B20A0943F2C601C0F60001895C01F05B
:100E80001F01C84040F20401C2F20001086040F2B4
:100E90000C00C2F200000068FFF734FD8DF8170067
:100EA000FFE79DF8170006B080BD000086B041F254
:100EB0000800C4F20200006800F00C00042806D10B
:100EC000FFE742F20040C0F2F400019069E041F215
:100ED0000800C4F20200006800F00C00082806D1E7
:100EE000FFE743F20060C0F26E10019058E041F25B
:100EF0000800C4F20200006800F00C000C284BD17E
:100F0000FFE741F20C00C4F20200016801F00301A6
:100F100004910068C1B2012000EB11100290049806
:100F20000090022815D0FFE70098032812D1FFE7B0
:100F3000029943F20060C0F26E10B0FBF1F041F292
:100F40000C01C4F202010968C1F30621484305906F
:100F500011E0FFE7029942F20040C0F2F400B0FB5A
:100F6000F1F041F20C01C4F202010968C1F306215B
:100F700048430590FFE741F20C00C4F2020000680C
:100F800000F0C061022000EB116003900598039906
:100F9000B0FBF1F0019002E000200190FFE7FFE7D5
:100FA000FFE7019806B07047B0B588B00690069884
:100FB00020B9FFE701208DF81F00CCE306980078E8
:100FC000C007002800F09B80FFE741F20800C4F250
:100FD0000200006800F00C00049041F20C00C4F222
:100FE0000200006800F00300039004980C2804D16C
:100FF000FFE70398032804D0FFE70498082812D1DC
:10100000FFE741F20000C4F20200006880030028FC
:1010100008D5FFE70698406820B9FFE701208DF862
:101020001F0098E36AE0FFE706984068B0F5803F4C
:1010300009D1FFE741F20001C4F20201086840F45F
:101040008030086020E006984068B0F5A02F0DD1F0
:10105000FFE741F20001C4F20201086840F4802079
:101060000860086840F4803008600CE041F200013C
:10107000C4F20201086820F480300860086820F497
:1010800080200860FFE7FFE7FFE706984068D0B1DF
:10109000FFE7FFF70BFC0590FFE741F20000C4F209
:1010A00002000068800300280CD4FFE7FFF7FEFB76
:1010B0000599401A652804D3FFE703208DF81F0027
:1010C00049E3EAE719E0FFF7F1FB0590FFE741F29A
:1010D0000000C4F202000068800300280CD5FFE77E
:1010E000FFF7E4FB0599401A652804D3FFE70320C6
:1010F0008DF81F002FE3EAE7FFE7FFE7FFE7069819
:1011000000788007002840F19F80FFE741F2080047
:10111000C4F20200006800F00C00049041F20C00E0
:10112000C4F20200006800F00300039004980C2849
:1011300004D1FFE70398022804D0FFE704980428AD
:101140002CD1FFE741F20000C4F202000068400524
:10115000002808D5FFE70698C06820B9FFE70120FE
:101160008DF81F00F7E241F20401C4F202010868A1
:1011700020F0FE40069A126940EA0260086040F2E0
:101180000C00C2F200000068FFF7BCFB20B1FFE7D3
:1011900001208DF81F00DEE2FFE754E00698C068EA
:1011A00070B3FFE741F20001C4F20201086840F4A5
:1011B00080700860FFF77AFB0590FFE741F20000BE
:1011C000C4F202000068400500280CD4FFE7FFF7D6
:1011D0006DFB0599401A032804D3FFE703208DF81F
:1011E0001F00B8E2EAE741F20401C4F20201086814
:1011F00020F0FE40069A126940EA0260086021E091
:1012000041F20001C4F20201086820F48070086015
:10121000FFF74CFB0590FFE741F20000C4F202002B
:101220000068400500280CD5FFE7FFF73FFB059954
:10123000401A032804D3FFE703208DF81F008AE239
:10124000EAE7FFE7FFE7FFE70698007800070028D6
:1012500049D5FFE70698406910B3FFE741F29401D2
:10126000C4F20201086840F001000860FFF71EFBAD
:101270000590FFE741F29400C4F202000068800785
:1012800000280CD4FFE7FFF711FB0599401A03284B
:1012900004D3FFE703208DF81F005CE2EAE721E0BA
:1012A00041F29401C4F20201086820F001000860D4
:1012B000FFF7FCFA0590FFE741F29400C4F2020048
:1012C0000068800700280CD5FFE7FFF7EFFA0599C3
:1012D000401A032804D3FFE703208DF81F003AE2E9
:1012E000EAE7FFE7FFE7069800784007002840F1AB
:1012F000C680FFE700208DF80B0041F25800C4F2D1
:1013000002000068C000002813D4FFE7FFE741F2A5
:101310005800C4F20200016841F080510160006889
:1013200000F0805001900198FFE701208DF80B003C
:10133000FFE747F20000C4F200000068C005002883
:1013400022D4FFE747F20001C4F20001086840F42C
:1013500080700860FFF7AAFA0590FFE747F20000E7
:10136000C4F200000068C00500280CD4FFE7FFF7B6
:101370009DFA0599401A032804D3FFE703208DF84E
:101380001F00E8E1EAE7FFE7FFE706988068012829
:1013900009D1FFE741F29001C4F20201086840F070
:1013A000010008601FE00698806805280DD1FFE75E
:1013B00041F29001C4F20201086840F004000860A4
:1013C000086840F0010008600CE041F29001C4F2AE
:1013D0000201086820F001000860086820F004009D
:1013E0000860FFE7FFE7FFE706988068E0B1FFE7E6
:1013F000FFF75CFA0590FFE741F29000C4F20200AB
:101400000068800700280ED4FFE7FFF74FFA059920
:10141000401A41F28931884204D3FFE703208DF856
:101420001F0098E1E8E71BE0FFF740FA0590FFE7AF
:1014300041F29000C4F202000068800700280ED537
:10144000FFE7FFF733FA0599401A41F289318842E4
:1014500004D3FFE703208DF81F007CE1E8E7FFE7F6
:101460009DF80B00012809D1FFE741F25801C4F2B1
:101470000201086820F080500860FFE7FFE7069847
:1014800000788006002849D5FFE70698806910B3E8
:10149000FFE741F29801C4F20201086840F0010040
:1014A0000860FFF703FA0590FFE741F29800C4F2E5
:1014B00002000068800700280CD4FFE7FFF7F6F968
:1014C0000599401A032804D3FFE703208DF81F0075
:1014D00041E1EAE721E041F29801C4F20201086823
:1014E00020F001000860FFF7E1F90590FFE741F205
:1014F0009800C4F202000068800700280CD5FFE7BE
:10150000FFF7D4F90599401A032804D3FFE7032015
:101510008DF81F001FE1EAE7FFE7FFE70698C069C3
:10152000002800F01481FFE741F20800C4F2020035
:10153000006800F00C000C2800F0B080FFE706986F
:10154000C06902287CD1FFE741F20001C4F2020128
:10155000086820F080700860FFF7A8F90590FFE7A1
:1015600041F20000C4F202000068800100280CD59E
:10157000FFE7FFF79BF90599401A032804D3FFE71B
:1015800003208DF81F00E6E0EAE741F20C01C4F207
:101590000201086848F20C02C0F29F121040DDF808
:1015A00018C0DCF82020DCF82450DCF828E0DCF857
:1015B0002C306FF00F0404EB0514224342EA0E2294
:1015C000DCF8304040F2000ECFF6E07E0EEA045E1A
:1015D000AEF5001E42EA0E02DCF834E04FF07E4C1D
:1015E0000CEA0E6C0CF17E4C42EA0C0242EAC36239
:1015F0001043086041F20002C4F20202106840F099
:1016000080701060086840F080700860FFF74EF945
:101610000590FFE741F20000C4F20200006880017B
:1016200000280CD4FFE7FFF741F90599401A032879
:1016300004D3FFE703208DF81F008CE0EAE72CE0DD
:1016400041F20001C4F20201086820F080700860D5
:10165000FFF72CF90590FFE741F20000C4F2020009
:101660000068800100280CD5FFE7FFF71FF90599F6
:10167000401A032804D3FFE703208DF81F006AE017
:10168000EAE741F20C01C4F2020108684FF6FC726D
:10169000CFF6EE6210400860FFE757E00698C06999
:1016A000012804D1FFE701208DF81F0053E041F22B
:1016B0000C00C4F2020000680390039800F00300DD
:1016C0000699096A88423BD1FFE7039800F0F000D1
:1016D00006994A6A6FF00F0101EB021188422FD17F
:1016E000FFE7039800F4FE400699896AB0EB012FEA
:1016F00026D1FFE7039800F078400699C96AB0EB5D
:10170000C16F1DD1FFE7039800F4C00006990A6B72
:101710000021CFF6E07101EA0251A1F500118842E3
:101720000ED1FFE7039800F0C06006994A6B4FF0B6
:101730007E4101EA026101F17E41884204D0FFE767
:1017400001208DF81F0006E0FFE7FFE7FFE700201C
:101750008DF81F00FFE79DF81F0008B0B0BD000026
:1017600081B000900098042809D1FFE74EF21001E3
:10177000CEF20001086840F00400086008E04EF274
:101780001001CEF20001086820F004000860FFE7B5
:1017900001B0704780B582B00190019800F04EFC16
:1017A00002B080BD82B00190ADF8021002B0704767
:1017B00081B0009001B0704781B0009001B07047D7
:1017C00081B0009001B0704781B0009001B07047C7
:1017D00083B002900298D0F8880001900298D0F867
:1017E0008C00009001980099084303B070470000F6
:1017F00080B590B00F900F980068C0690E900F9858
:10180000006800680D900F98006880680C900E9832
:1018100040F60F0108400B900B98E0B9FFE79DF8E8
:1018200038008006002815D5FFE79DF834008006B3
:10183000002806D4FFE79DF83300C006002809D52C
:10184000FFE70F98406F20B1FFE70F98416F88477F
:10185000FFE796E2FFE70B98002800F00C81FFE716
:101860000C980121C1F20001084209D1FFE70D984F
:1018700040F22011C0F20041084200F0FC80FFE776
:101880009DF83800C00788B1FFE79DF83500C00714
:1018900060B1FFE70F980168012008620F99D1F845
:1018A000900040F00100C1F89000FFE79DF838007B
:1018B0008007002811D5FFE79DF83000C00760B110
:1018C000FFE70F980168022008620F99D1F8900095
:1018D00040F00400C1F89000FFE79DF83800400791
:1018E000002811D5FFE79DF83000C00760B1FFE781
:1018F0000F980168042008620F99D1F8900040F019
:101900000200C1F89000FFE79DF8380000070028AA
:1019100019D5FFE79DF834008006002807D4FFE7BB
:101920000C980121C1F2000108420CD0FFE70F988A
:101930000168082008620F99D1F8900040F0080073
:10194000C1F89000FFE79DF839000007002813D583
:10195000FFE79DF83700400700280DD5FFE70F98F7
:1019600001684FF4006008620F99D1F8900040F0D0
:101970002000C1F89000FFE70F98D0F890000028F1
:1019800078D0FFE79DF838008006002815D5FFE7DE
:101990009DF834008006002806D4FFE79DF8330048
:1019A000C006002809D5FFE70F98406F20B1FFE778
:1019B0000F98416F8847FFE7FFE70F98D0F8900036
:1019C0000A900F980068806800F04000402806D018
:1019D000FFE79DF8280010F0280F42D0FFE70F988E
:1019E00000F076FB0F98006880684006002833D529
:1019F000FFE7FFE7FFE70F98006850E8020F20F0CD
:101A000040000990FFE709990F98026842E8021028
:101A10000028F0D1FFE7FFE70F98D0F88000B0B1C1
:101A2000FFE70F98D0F8801042F2AD00C0F600003A
:101A300088630F98D0F88000FEF704FD30B1FFE70F
:101A40000F98D0F88000816B8847FFE703E00F987C
:101A5000FFF7BAFEFFE703E00F98FFF7B5FEFFE7D9
:101A600007E00F98FFF7B0FE0F990020C1F8900033
:101A7000FFE7FFE785E10F98C06E012840F0228163
:101A8000FFE79DF83800C006002840F11B81FFE702
:101A90009DF83400C006002840F11481FFE70F983C
:101AA0000168102008620F980068806840060028CE
:101AB00040F1A680FFE70F98D0F8800000684068EA
:101AC000ADF82200BDF8220000287CD0FFE7BDF869
:101AD00022000F99B1F85C10884274DAFFE7BDF874
:101AE00022000F99A1F85E000F98D0F880000068DE
:101AF00000688006002859D4FFE7FFE7FFE70F984A
:101B0000006850E8000F20F480700790FFE7079905
:101B10000F98026842E800100028F0D1FFE7FFE7C5
:101B2000FFE7FFE70F98006850E8020F20F0010080
:101B30000690FFE706990F98026842E80210002815
:101B4000F0D1FFE7FFE7FFE7FFE70F98006850E8F5
:101B5000020F20F040000590FFE705990F980268FA
:101B600042E802100028F0D1FFE7FFE70F9920209C
:101B7000C1F88C000F990020C866FFE7FFE70F98B7
:101B8000006850E8000F20F010000490FFE704996F
:101B90000F98026842E800100028F0D1FFE7FFE745
:101BA0000F98D0F88000FEF7FFFBFFE70F990220A7
:101BB00008670F98B0F85C10B0F85E20891A89B2F7
:101BC000FFF7F0FD1BE0BDF822000F99B1F85C10A3
:101BD000884213D1FFE70F98D0F8800000680068B2
:101BE0008006002809D5FFE70F99022008670F98A3
:101BF000B0F85C10FFF7D6FDFFE7FFE7FFE7C0E0B6
:101C00000F99B1F85C00B1F85E10401AADF80E0003
:101C10000F98B0F85E00002853D0FFE7BDF80E0023
:101C200000284ED0FFE7FFE7FFE70F98006850E875
:101C3000000F20F490700290FFE702990F9802685D
:101C400042E800100028F0D1FFE7FFE7FFE7FFE7D9
:101C50000F98006850E8020F4FF6FE71CEF6FF7144
:101C600008400190FFE701990F98026842E80210CE
:101C70000028EDD1FFE7FFE70F992020C1F88C0085
:101C80000F990020C8660F994867FFE7FFE70F9894
:101C9000006850E8000F20F010000090FFE7009966
:101CA0000F98026842E800100028F0D1FFE7FFE734
:101CB0000F99022008670F98BDF80E10FFF772FD0C
:101CC000FFE75EE09DF83A00C00600280FD5FFE769
:101CD0009DF832004006002809D5FFE70F980168FB
:101CE0004FF4801008620F98FFF76AFD49E09DF8F5
:101CF00038000006002815D5FFE79DF834000006DF
:101D0000002806D4FFE79DF832000006002809D518
:101D1000FFE70F98806F20B1FFE70F98816F88472A
:101D2000FFE72EE09DF83800400600280AD5FFE7BF
:101D30009DF834004006002804D5FFE70F9800F016
:101D400017FA1EE09DF83A00000600280AD5FFE7C2
:101D50009DF837004006002804D5FFE70F98FFF7ED
:101D60002BFD0EE09DF83B00C00750B1FFE79DF84A
:101D700037000006002804D5FFE70F98FFF718FD8D
:101D8000FFE710B080BD000080B586B004900391DD
:101D9000ADF80A200498D0F88C0020283CD1FFE749
:101DA000039820B1FFE7BDF80A0020B9FFE7012042
:101DB0008DF8170034E004990020C8660498006884
:101DC00048F20001C4F2000188421CD0FFE70498E9
:101DD000006840680002002814D5FFE7FFE7FFE72E
:101DE0000498006850E8000F40F080600190FFE721
:101DF00001990498026842E800100028F0D1FFE73A
:101E0000FFE7FFE7FFE704980399BDF80A2000F019
:101E100059FE8DF8170003E002208DF81700FFE748
:101E20009DF8170006B080BD80B582B00190019882
:101E3000006843F60001C4F2010188426AD1FFE75D
:101E400040F2D410C2F2000000880004002855D4EB
:101E5000FFE740F2D410C2F20000008840040028DE
:101E600019D5FFE740F27400C2F2000000780A289A
:101E700007D0FFE740F2D411C2F200010020088031
:101E800008E040F2D411C2F20001088840F400409A
:101E90000880FFE731E040F27400C2F200000078F1
:101EA0000D2809D1FFE740F2D411C2F200010888E1
:101EB00040F4804008801FE040F27400C2F200004D
:101EC000017840F2D410C2F2000003886FF39F3310
:101ED00040F20C12C2F20002D1540188013101809B
:101EE0000088C82807DBFFE740F2D411C2F20001E6
:101EF00000200880FFE7FFE7FFE7FFE740F27800F8
:101F0000C2F2000040F27401C2F200010122FFF7A8
:101F10003BFFFFE702B080BD81B0009001B0704789
:101F2000FFE7FEE7FFE7FEE77047000088B0079095
:101F300006910592079800F0070004900498C0F1FC
:101F40000700052803D3FFE70420019004E004986C
:101F5000C0F107000190FFE7019803900498043056
:101F6000062803D8FFE70020009003E00498033818
:101F70000090FFE70098029006980399012202FA68
:101F800001F101390840029B984005999A40013AB5
:101F90001140084308B070477047000086B041F216
:101FA0000C00C4F20200016801F003010491006812
:101FB000C1B2012000EB1110029004980090022899
:101FC00015D0FFE70098032812D1FFE7029943F2EA
:101FD0000060C0F26E10B0FBF1F041F20C01C4F2EF
:101FE00002010968C1F306214843059011E0FFE7AB
:101FF000029942F20040C0F2F400B0FBF1F041F26D
:102000000C01C4F202010968C1F30621484305909E
:10201000FFE741F20C00C4F20200006800F0C0616A
:10202000022000EB1160039005980399B0FBF1F0DA
:102030000190019806B070477047000080B582B0EB
:10204000009000980138B0F1807F03D3FFE70120B2
:10205000019019E0009801384EF21401CEF200010F
:1020600008604FF0FF300F2100F08AFE4EF2180199
:10207000CEF20001002008604EF21002CEF2000203
:10208000072111600190FFE7019802B080BD0000B8
:1020900080B5FEF711FC80BD4EF68851CEF20001EE
:1020A000086840F4700008607047000080B582B096
:1020B00001900198806A009000990020A1F85E00CC
:1020C0000099A1F856000098FFF77EFB02B080BD92
:1020D00084B00390FFE7FFE70398006850E8000F23
:1020E00020F490700290FFE702990398026842E89A
:1020F00000100028F0D1FFE7FFE7FFE7FFE70398B4
:10210000006850E8020F4FF6FE71CEF6FF710840EE
:102110000190FFE701990398026842E80210002845
:10212000EDD1FFE7FFE70398C06E012814D1FFE768
:10213000FFE7FFE70398006850E8000F20F0100069
:102140000090FFE700990398026842E80010002819
:10215000F0D1FFE7FFE7FFE703992020C1F88C00EB
:1021600003990020C8660399486704B070470000CF
:1021700080B582B00190FFE7FFE70198006850E862
:10218000000F20F040000090FFE7009901980268DE
:1021900042E800100028F0D1FFE7FFE70199202076
:1021A000C1F888000199002088670198FFF7B4FE04
:1021B00002B080BD80B588B007900798B0F8600085
:1021C000ADF816000798D0F88C00222840F0AB80BC
:1021D000FFE707980068406AADF814000798806D23
:1021E0000690BDF81400BDF8161008400699088046
:1021F0000799886D023088650799B1F85E0001384B
:10220000A1F85E000798B0F85E00002840F08A80D0
:10221000FFE7FFE7FFE70798006850E8000F20F4AA
:1022200090700490FFE704990798026842E8001054
:102230000028F0D1FFE7FFE7FFE7FFE70798006816
:1022400050E8020F20F001000390FFE70399079880
:10225000026842E802100028F0D1FFE7FFE7079983
:102260002020C1F88C00079900204867079908676B
:102270000798006848F20001C4F2000188421CD0AF
:10228000FFE70798006840680002002814D5FFE7C0
:10229000FFE7FFE70798006850E8000F20F0806034
:1022A0000290FFE702990798026842E800100028B0
:1022B000F0D1FFE7FFE7FFE7FFE70798C06E0128CF
:1022C0002BD1FFE707990020C866FFE7FFE70798D3
:1022D000006850E8000F20F010000190FFE701991E
:1022E0000798026842E800100028F0D1FFE7FFE7F6
:1022F00007980068C06900F010010120B0EB111FC1
:1023000005D1FFE70798016810200862FFE70798EA
:10231000B0F85C10FFF746FA03E00798FFF784FD7A
:10232000FFE7FFE706E007980168886940F00800CA
:102330008861FFE708B080BD80B58EB00D900D9824
:10234000B0F86000ADF82E000D980068C0690990E3
:102350000D980068006808900D98006880680790E4
:102360000D98D0F88C00222840F06181FFE70D988D
:10237000B0F86800ADF82A00FFE7BDF82A10002089
:10238000009031B1FFE79DF82400C0F340100090A9
:10239000FFE70098C007002800F00A81FFE70D98CA
:1023A0000068406AADF82C000D98806D0C90BDF867
:1023B0002C00BDF82E1008400C9908800D99886DEE
:1023C000023088650D99B1F85E000138A1F85E0011
:1023D0000D980068C06909909DF824004007002806
:1023E00052D0FFE79DF82400C00788B1FFE79DF8B1
:1023F0002100C00760B1FFE70D9801680120086265
:102400000D99D1F8900040F00100C1F89000FFE76D
:102410009DF824008007002811D5FFE79DF81C00D7
:10242000C00760B1FFE70D980168022008620D99AE
:10243000D1F8900040F00400C1F89000FFE79DF84B
:1024400024004007002811D5FFE79DF81C00C007B5
:1024500060B1FFE70D980168042008620D99D1F87A
:10246000900040F00200C1F89000FFE70D98D0F80E
:10247000900040B1FFE70D98FFF7A6F90D990020F5
:10248000C1F89000FFE7FFE70D98B0F85E00002864
:1024900040F08D80FFE7FFE7FFE70D98006850E808
:1024A000000F20F480700690FFE706990D980268EF
:1024B00042E800100028F0D1FFE7FFE7FFE7FFE761
:1024C0000D98006850E8020F4FF6FE71CEF6FF71CE
:1024D00008400590FFE705990D98026842E8021050
:1024E0000028EDD1FFE7FFE70D992020C1F88C000F
:1024F0000D99002048670D9908670D98006848F20B
:102500000001C4F2000188421CD0FFE70D9800686A
:1025100040680002002814D5FFE7FFE7FFE70D98A9
:10252000006850E8000F20F080600490FFE70499F5
:102530000D98026842E800100028F0D1FFE7FFE79D
:10254000FFE7FFE70D98C06E01282BD1FFE70D993B
:102550000020C866FFE7FFE70D98006850E8000F0D
:1025600020F010000390FFE703990D98026842E8FD
:1025700000100028F0D1FFE7FFE70D980068C06960
:1025800000F010010120B0EB111F05D1FFE70D98FD
:10259000016810200862FFE70D98B0F85C10FFF7A3
:1025A00001F903E00D98FFF73FFCFFE700E0E4E6E8
:1025B0000D98B0F85E00ADF82800BDF82800A8B36B
:1025C000FFE7BDF828000D99B1F8681088422DDAB0
:1025D000FFE7FFE7FFE70D98006850E8020F20F0E3
:1025E00080500290FFE702990D98026842E80210BD
:1025F0000028F0D1FFE7FFE70D9942F2B510C0F6D1
:1026000000004867FFE7FFE70D98006850E8000FFB
:1026100040F020000190FFE701990D98026842E820
:1026200000100028F0D1FFE7FFE7FFE706E00D9874
:102630000168886940F008008861FFE70EB080BD3E
:1026400080B586B005900598B0F86000ADF812002E
:102650000598D0F88C00222840F0A980FFE7059863
:102660000068406AADF81000BDF810009DF8121027
:1026700008400599896D08700599886D0130886555
:102680000599B1F85E000138A1F85E000598B0F830
:102690005E00002840F08A80FFE7FFE7FFE705982B
:1026A000006850E8000F20F490700390FFE7039952
:1026B0000598026842E800100028F0D1FFE7FFE724
:1026C000FFE7FFE70598006850E8020F20F00100DF
:1026D0000290FFE702990598026842E8021000287C
:1026E000F0D1FFE7FFE705992020C1F88C0005999C
:1026F00000204867059908670598006848F20001BE
:10270000C4F2000188421CD0FFE7059800684068C9
:102710000002002814D5FFE7FFE7FFE705980068EF
:1027200050E8000F20F080600190FFE701990598C4
:10273000026842E800100028F0D1FFE7FFE7FFE75A
:10274000FFE70598C06E01282BD1FFE7059900200F
:10275000C866FFE7FFE70598006850E8000F20F023
:1027600010000090FFE700990598026842E8001009
:102770000028F0D1FFE7FFE705980068C06900F086
:1027800010010120B0EB111F05D1FFE7059801688A
:1027900010200862FFE70598B0F85C10FFF702F818
:1027A00003E00598FFF740FBFFE7FFE706E0059829
:1027B0000168886940F008008861FFE706B080BDC5
:1027C00080B58EB00D900D98B0F86000ADF8320075
:1027D0000D980068C0690A900D980068006809901B
:1027E0000D980068806808900D98D0F88C00222819
:1027F00040F05F81FFE70D98B0F86800ADF82E005B
:10280000FFE7BDF82E100020019031B1FFE79DF8E1
:102810002800C0F340100190FFE70198C00700288E
:1028200000F00881FFE70D980068406AADF83000BD
:10283000BDF830009DF8321008400D99896D087080
:102840000D99886D013088650D99B1F85E000138E9
:10285000A1F85E000D980068C0690A909DF82800F4
:102860004007002852D0FFE79DF82800C00788B134
:10287000FFE79DF82500C00760B1FFE70D980168EC
:10288000012008620D99D1F8900040F00100C1F8D4
:102890009000FFE79DF828008007002811D5FFE78A
:1028A0009DF82000C00760B1FFE70D980168022085
:1028B00008620D99D1F8900040F00400C1F8900032
:1028C000FFE79DF828004007002811D5FFE79DF895
:1028D0002000C00760B1FFE70D980168042008627E
:1028E0000D99D1F8900040F00200C1F89000FFE788
:1028F0000D98D0F8900040B1FFE70D98FEF764FF07
:102900000D990020C1F89000FFE7FFE70D98B0F89F
:102910005E00002840F08D80FFE7FFE7FFE70D989D
:10292000006850E8000F20F480700790FFE70799D7
:102930000D98026842E800100028F0D1FFE7FFE799
:10294000FFE7FFE70D98006850E8020F4FF6FE71B1
:10295000CEF6FF7108400690FFE706990D980268D1
:1029600042E802100028EDD1FFE7FFE70D99202093
:10297000C1F88C000D99002048670D9908670D98E3
:10298000006848F20001C4F2000188421CD0FFE751
:102990000D98006840680002002814D5FFE7FFE7A3
:1029A000FFE70D98006850E8000F20F08060059068
:1029B000FFE705990D98026842E800100028F0D161
:1029C000FFE7FFE7FFE7FFE70D98C06E01282BD177
:1029D000FFE70D990020C866FFE7FFE70D98006844
:1029E00050E8000F20F010000490FFE704990D98C4
:1029F000026842E800100028F0D1FFE7FFE70D98D9
:102A00000068C06900F010010120B0EB111F05D172
:102A1000FFE70D98016810200862FFE70D98B0F8F5
:102A20005C10FEF7BFFE03E00D98FFF7FDF9FFE72E
:102A300000E0E6E60D98B0F85E00ADF82C00BDF8B9
:102A40002C00A8B3FFE7BDF82C000D99B1F8681071
:102A500088422DDAFFE7FFE7FFE70D98006850E8AE
:102A6000020F20F080500390FFE703990D98026851
:102A700042E802100028F0D1FFE7FFE70D9942F28B
:102A80004160C0F600004867FFE7FFE70D98006867
:102A900050E8000F40F020000290FFE702990D98E7
:102AA000026842E800100028F0D1FFE7FFE7FFE7E7
:102AB00006E00D980168886940F008008861FFE72A
:102AC0000EB080BD88B007900691ADF8162006982C
:102AD00007998865BDF816000799A1F85C00BDF854
:102AE00016000799A1F85E00079900204867FFE7E4
:102AF00007988068B0F5805F10D1FFE707980069FC
:102B000030B9FFE7079940F2FF10A1F8600004E038
:102B10000799FF20A1F86000FFE72EE00798806882
:102B200078B9FFE70798006928B9FFE70799FF2000
:102B3000A1F8600004E007997F20A1F86000FFE79A
:102B40001AE007988068B0F1805F0FD1FFE707981F
:102B5000006928B9FFE707997F20A1F8600004E029
:102B600007993F20A1F86000FFE704E007990020E3
:102B7000A1F86000FFE7FFE7FFE7FFE70799002004
:102B8000C1F8900007992220C1F88C00FFE7FFE709
:102B90000798006850E8020F40F001000490FFE73A
:102BA00004990798026842E802100028F0D1FFE774
:102BB000FFE70798406EB0F1005F4CD1FFE7BDF82A
:102BC00016000799B1F86810884244DBFFE70798C0
:102BD0008068B0F5805F0BD1FFE70798006938B9CE
:102BE000FFE7079942F23930C0F60000486706E077
:102BF000079942F2C170C0F600004867FFE70798E6
:102C00000069A0B1FFE7FFE7FFE70798006850E819
:102C1000000F40F480700390FFE703990798026863
:102C200042E800100028F0D1FFE7FFE7FFE7FFE7E9
:102C3000FFE70798006850E8020F40F080500290CC
:102C4000FFE702990798026842E802100028F0D1D5
:102C5000FFE7FFE744E007988068B0F5805F0BD19D
:102C6000FFE70798006938B9FFE7079942F2B51006
:102C7000C0F60000486706E0079942F24160C0F6DE
:102C800000004867FFE707980069A0B1FFE7FFE78A
:102C9000FFE70798006850E8000F40F4907001903B
:102CA000FFE701990798026842E800100028F0D178
:102CB000FFE7FFE713E0FFE7FFE70798006850E84A
:102CC000000F40F020000090FFE70099079802688D
:102CD00042E800100028F0D1FFE7FFE7FFE7FFE739
:102CE000002008B07047000080B584B0002001903B
:102CF00003904FF6FF70C0F20100029040F278009E
:102D0000C2F20000FEF774FD01980390FFE740F265
:102D10007800C2F20000FEF75BFD20280AD0FFE732
:102D200003980130039003980299884201D9FFE784
:102D300000E0ECE700200390FFE740F27800C2F2E9
:102D4000000040F27401C2F200010122FFF71CF8FA
:102D500050B1FFE70398013003900398029988422D
:102D600001D9FFE700E0E8E704B080BDFFE7FEE738
:102D70004EF60C50CEF200000068C0F302207047FF
:102D800082B08DF8070000919DF9070000280AD451
:102D9000FFE7009800019DF907104EF20042CEF2C5
:102DA000000288540BE0009800019DF8071001F024
:102DB0000F014EF61452CEF200028854FFE702B023
:102DC0007047000083B00290029800F00700009066
:102DD0004EF60C51CEF200010868019001984FF6B2
:102DE000FF02104001900198009A40EA0220002260
:102DF000C0F2FA52104301900198086003B0704786
:102E000081B0009001B0704780B582B0ADF8060087
:102E10000420FEF7A5FCBDF8060040F27001C2F2E6
:102E20000001086002B080BD80B582B0ADF8060038
:102E300000200090FFE70098BDF80610884209D2F4
:102E4000FFE74FF47A7000F007F8FFE700980130D1
:102E50000090F0E702B080BD86B0059000200190A0
:102E60004EF21400CEF2000000680090059840F287
:102E70007001C2F200010968484304904EF2180044
:102E8000CEF2000000680390FFE74EF21800CEF289
:102E90000000006802900298039988421ED0FFE764
:102EA00002980399884207D2FFE703980299411AD2
:102EB00001980844019008E000980299401A03998B
:102EC0000144019808440190FFE70298039001989B
:102ED0000499884201D3FFE701E0FFE7D5E706B098
:102EE0007047000080B58AB0FFE741F24C00C4F2A1
:102EF0000200016841F010010160006800F010005C
:102F000004900498FFE70120039005900690079035
:102F100002200290089041F20000C4F600000190E7
:102F200005A90091FDF7F0FA00990198029A05921F
:102F3000FDF7EAFA0198039A1146FDF799FC01980A
:102F40000299039AFDF794FC0AB080BD80B588B061
:102F500000200790FDF7BEFC694608200860552058
:102F600002220423114600F02BF8AA20FFF74CFFA1
:102F7000FFF7B8FFFFE741F20000C4F6000003903E
:102F80000121029100220592FDF772FC029A03983A
:102F900002210491FDF76CFC4FF47A700690FFF764
:102FA00043FF029A03981146FDF762FC03980499C7
:102FB000059AFDF75DFC0698FFF736FFDBE700009A
:102FC00080B59CB0DDF878C01A90199118921793CB
:102FD000002001908DF85B0008A83821FDF783F9E7
:102FE000019807900690059004900390FFE741F246
:102FF0005800C4F20200016841F08051016000688D
:1030000000F0805002900298FFE70020FDF7E0FCFE
:10301000012008904FF48030099002200F90032087
:1030200010901A98129019981190179813901E9852
:1030300014901898159008A8FDF7B6FF8DF85B005E
:103040009DF85B0020B1FFE701208DF86F0029E0BB
:103050000F20039003200490002005900690079015
:1030600003A80421FDF78EFD8DF85B009DF85B0041
:1030700020B1FFE701208DF86F0013E0FDF70EFC93
:1030800041F20101884209D1FFE742F20001C4F296
:103090000201086840F480700860FFE700208DF8A6
:1030A0006F00FFE79DF86F001CB080BDF1EE100AC5
:1030B0004FF6FF71C0F2C03120EA010040F04070CD
:1030C000E1EE100A7047000000000000000001025D
:1030D0000304060708090000F8300008000000207B
:1030E000100000003C020008083100081000002019
:1030F000D00700005C020008010000000024F4007A
:083100000100000010000000B6
:04000005080001D915
:00000001FF
